:020000040800F2
:10000000E01A0020E5010008DD540008DF54000874
:10001000E3540008E7540008EB5400080000000017
:10002000000000000000000000000000EF54000885
:10003000F154000800000000F3540008F5540008D3
:10004000FF010008FF010008FF010008FF01000890
:10005000FF010008FF010008FF010008FF01000880
:10006000FF010008FF010008FF010008FF01000870
:10007000FF010008FF010008FF010008FF01000860
:10008000FF010008FF010008FF010008FF01000850
:10009000FF010008FF010008FF010008FF01000840
:1000A000FF010008FF010008FF010008FF01000830
:1000B000FD5400081F5500083D550008FF010008C9
:1000C000FF010008FF010008FF010008FF01000810
:1000D000FF010008613B0008F33B0008973C000863
:1000E000FF010008FF010008FF01000800F002F80E
:1000F00000F068F80AA090E8000C82448344AAF15A
:100100000107DA4501D100F05DF8AFF2090EBAE857
:100110000F0013F0010F18BFFB1A43F0010318473B
:100120003C6600005C6600000A444FF0000C10F8CA
:10013000013B13F0070408BF10F8014B1D1108BF65
:1001400010F8015B641E05D010F8016B641E01F805
:10015000016BF9D113F0080F1EBF10F8014BAD1C55
:100160000C1B09D16D1E58BF01F801CBFAD505E073
:1001700014F8016B01F8016B6D1EF9D59142D6D3CD
:10018000704700000023002400250026103A28BFF5
:1001900078C1FBD8520728BF30C148BF0B607047F9
:1001A000642905F07183002070471FB505F0F0FD4C
:1001B00004000020002105F043FE401C60601FBDCC
:1001C00010B510BD05F0BFFD1146FFF7EEFF05F0BD
:1001D00032F805F0EFFD03B4FFF7F2FF03BC03F0C4
:1001E0002BFB00000948804709480047FEE7FEE76F
:1001F000FEE7FEE7FEE7FEE7FEE7FEE7FEE7FEE7D7
:1002000004480549054A064B70470000F1560008AE
:10021000ED000008E0140020E01A0020E0160020A5
:10022000E016002031490143314A1160704770B532
:10023000002100230F22C4780CB32D4C246804F451
:10024000E064C4F5E064210AC1F10403CA404478C3
:1002500004FA03F18478144021430901254C0678FF
:10026000A155047804F01F050124AC4005786D11F8
:100270004FF0E02606EB8505C5F8004109E004785B
:1002800004F01F050124AC401B4D0678761145F89B
:10029000264070BD194A0A400243154B1B1F1A60C5
:1002A000704739B1124A121D12680243104B1B1DD0
:1002B0001A6006E00E4A121D126882430C4B1B1D89
:1002C0001A607047042808D14FF0E021096941F015
:1002D00004014FF0E022116107E04FF0E0210969CD
:1002E00021F004014FF0E022116170470000FA058F
:1002F0000CED00E000E400E080E100E080FFFF1F83
:1003000010B50446F948844208D10121401500F097
:1003100041FD0021601500F03DFD17E0F4488442E6
:1003200008D10121001500F035FD0021201500F055
:1003300031FD0BE0EF48844208D10121C80300F0F1
:1003400029FD00214FF4004000F024FD10BD30B520
:100350000246002000235068E74C20400D790C68CD
:1003600044EA0524204350609068E44C2040D1E9E1
:1003700002542C434D7944EA450420439060D06AEE
:1003800020F470000C7C641EE4B2234340EA035066
:10039000D06230BD00210160017141718160C16096
:1003A00001210174704721B1826842F0010282602C
:1003B00003E0826822F001028260704721B1826806
:1003C00042F48072826003E0826822F4807282606C
:1003D000704710B50023CBB21AB144681C43446087
:1003E00002E044689C43446010BD816841F008010C
:1003F00081607047014600208A6812F0080F01D022
:10040000012000E000207047816841F00401816014
:100410007047014600208A6812F0040F01D00120C5
:1004200000E00020704721B1826842F4A00282609F
:1004300003E0826822F4A002826070470146002037
:100440008A6812F4800F01D0012000E0002070477C
:1004500010B50A4600210023416821F46041531E73
:1004600041EA4331416010BD21B1426842F400626B
:10047000426003E0426822F4006242607047F0B5D7
:1004800004460D4600200021092D11DDE068A5F18C
:100490000A0606EB4607072606FA07F18843A5F188
:1004A0000A0606EB460603FA06F10843E0600CE094
:1004B000206905EB4507072606FA07F1884305EB97
:1004C000450603FA06F108432061072A0FDA606B3C
:1004D000561E06EB86071F2606FA07F18843561EAE
:1004E00006EB860605FA06F10843606322E00D2A52
:1004F0000FDA206BD61F06EB86071F2606FA07F1D8
:100500008843D61F06EB860605FA06F108432063EA
:1005100010E0E06AA2F10D0606EB86071F2606FA38
:1005200007F18843A2F10D0606EB860605FA06F1EF
:100530000843E062F0BD21B1826842F4801282601B
:1005400003E0826822F48012826070470146C86C22
:1005500080B2704765484C300068704721B14268EE
:1005600042F48062426003E0426822F480624260AA
:10057000704721B1426842F48052426003E0426811
:1005800022F48052426070470A460021816821F4BB
:10059000E04111438160704721B1826842F400421A
:1005A000826003E0826822F400428260704721B1D9
:1005B000826842F40212826003E0826822F402122E
:1005C00082607047014600208A6812F4001F01D043
:1005D000012000E000207047F0B5044615460020D9
:1005E00000220026092911DDE068A1F10A0707EBC6
:1005F000470C072707FA0CF29043A1F10A0707EB13
:10060000470703FA07F21043E0600CE0206901EBB2
:10061000410C072707FA0CF2904301EB410703FA5C
:1006200007F210432061A06BC0F30156EF1C06F1E6
:10063000010CA7EB0C0707EB870C1F2707FA0CF23E
:100640009043EF1C06F1010CA7EB0C0707EB8707A3
:1006500001FA07F21043A063F0BD10B50A4600216D
:100660000023816B21F44011531E41EA0351816341
:1006700010BD10B5002303460B441A6010BD02469E
:100680000023134601F128000344186880B2704724
:100690000A46002141681A4B1940114341607047D6
:1006A0004162826270470A460021416821F01F01C1
:1006B00011434160704740B10C490831096841F469
:1006C00000010A4A0832116007E008490831096848
:1006D00021F40001054A08321160704702460020EB
:1006E00013680B420ED001200DE0000000240140F1
:1006F00000280140003C0140FFFEF0FFFDF7F1FF44
:10070000FFFD3FFF00207047CA430260704770B58D
:1007100002460020002300240B125568CEB205EAE1
:10072000060415681D4202D00CB1012000E0002033
:1007300070BD00220A12D3430360704710B504460F
:10074000CA48844208D10121042000F023FB002183
:10075000042000F01FFB46E0C548844208D1012177
:10076000082000F017FB0021082000F013FB3AE0FE
:10077000C048844208D10121102000F00BFB002169
:10078000102000F007FB2EE0BB48844208D1012175
:10079000202000F0FFFA0021202000F0FBFA22E0E8
:1007A000B648844208D10121402000F0F3FA00212C
:1007B000402000F0EFFA16E0B148844208D1012150
:1007C000802000F0E7FA0021802000F0E3FA0AE040
:1007D000AC48844207D10121801500F0DBFA0021EA
:1007E000A01500F0D7FA10BD10B50121084600F0A1
:1007F000D1FA0021012000F0CDFA10BD2DE9F04121
:10080000024600250026002000230024002791F83E
:1008100003C00CF00F0591F803C01CF0100F03D0BB
:1008200091F802C04CEA050591F800C0BCF1000F38
:1008300031D0146800202BE04FF0010C0CFA00F3CB
:10084000B1F800C00CEA03069E4220D183004FF0AD
:100850000F0C0CFA03F7BC4305FA03FC4CEA040442
:1008600091F803C0BCF1280F06D14FF0010C0CFA2F
:1008700000FCC2F814C00AE091F803C0BCF1480FB4
:1008800005D14FF0010C0CFA00FCC2F810C0401C5E
:100890000828D1D31460B1F800C0BCF1FF0F34DDDB
:1008A000546800202EE000F1080C4FF0010808FA0F
:1008B0000CF3B1F800C00CEA03069E4221D183007C
:1008C0004FF00F0C0CFA03F7BC4305FA03FC4CEA9B
:1008D000040491F803C0BCF1280F05D100F1080C05
:1008E00008FA0CF8C2F8148091F803C0BCF1480F64
:1008F00007D100F1080C4FF0010808FA0CF8C2F813
:100900001080401C0828CED35460BDE8F0814FF61B
:10091000FF710180022181700421C170704702467D
:10092000002093680B4201D0012000E000207047B6
:100930000146886880B2704702460020D3680B42A7
:1009400001D0012000E0002070470146C86880B255
:10095000704701617047416170470AB1016100E071
:1009600041617047C16070474FF480320A43826131
:100970008161826182698269704702460020424B30
:1009800018684FF68073184040EA021008433E4B47
:10099000186070473D49C8617047F0B50A460023AA
:1009A00000240021002500F00046B6F1004F02D1DE
:1009B000354EF16901E0344E7168C0F3034583B2EE
:1009C00000F44016B6F5401F08D121F070612E4E9C
:1009D000766826F070662C4F7E6012E000F4801678
:1009E000B6F5801F06D1032606FA05F4A14341F0AF
:1009F000706106E0460D360103FA06F6B14341F098
:100A0000706122B1460D360103FA06F6314300F05B
:100A10000046B6F1004F02D11B4EF16101E01A4EC3
:100A20007160F0BD30B500228B071C0F0F2303FA55
:100A300004F2154B08338C1053F824309343124CB6
:100A400008348D1044F8253023468C1053F8243098
:100A50008C07240F00FA04F423430B4C08348D1048
:100A600044F8253030BD0A4908607047000801404D
:100A7000000C01400010014000140140001801402A
:100A8000001C014000200140000001400000204205
:100A9000DC002042DB48006840F00100D9490860D2
:100AA00008464068D8490840D6494860084600686A
:100AB000D6490840D34908600846006820F48020E1
:100AC00008600846406820F4FE0048604FF41F00AC
:100AD00088607047CB49096821F48031C94A1160A8
:100AE0001146096821F480211160B0F5803F03D0E0
:100AF000B0F5802F0ED106E0C249096841F480317B
:100B0000C04A116007E0BF49096841F4A021BD4A0D
:100B1000116000E000BF00BF704710B50146002221
:100B2000002300204A11012A02D1B64C236806E0B6
:100B3000022A02D1B34C236A01E0B24C636A01F08D
:100B40001F02012494401C4201D0012000E000203B
:100B500010BD70B500240025002600BF3120FFF72E
:100B6000DCFF0646641CB4F5A06F01D0002EF5D062
:100B70003120FFF7D2FF08B1012500E0002528460B
:100B800070BD014600209F4A106820F0F80040EA3E
:100B9000C100106070479E490860704702460020FF
:100BA000984B586820F47C1042EA01031843954B97
:100BB0005860704796490866704701460020914A80
:100BC000506820F003000843506070478D4840682B
:100BD00000F00C007047014600208A4A506820F05F
:100BE000F00008435060704701460020854A506875
:100BF00020F4E06008435060704701460020814ABD
:100C0000506820F4605040EAC1005060704729B13C
:100C10007C4A527A02437B4B5A7204E0794A527AF8
:100C20008243784B5A7270477A4908607047014690
:100C30000020744A506820F44040084350607047D8
:100C40000021754A11706F4A82F82010012802D0E5
:100C5000042808D103E001216F4A117004E0052146
:100C60006D4A117000E000BF00BF70476B4908601B
:100C700070476449096A0143624A116270476749D3
:100C800044390860704730B5002100220024002359
:100C90005C4D6D6805F00C0121B1042905D00829CF
:100CA00023D105E05E4D056022E05D4D05601FE04B
:100CB000544D6D6805F47012524D6D6805F4803422
:100CC000022505EB92421CB9564D554305600BE0D9
:100CD0004C4D6D6815F4003F03D0524D55430560EF
:100CE00002E04F4D5543056002E04D4D056000BFE9
:100CF00000BF444D6D6805F0F00109094A4D6B5C79
:100D00000568DD4045603F4D6D6805F4E061090A06
:100D1000454D6B5C4568DD4085603A4D6D6805F476
:100D20006051C90A404D6B5C4568DD40C560354D7A
:100D30006D6805F44041890B3C4D6B5CC568B5FBA3
:100D4000F3F5056130BD29B12E4A526902432D4B9E
:100D50005A6104E02B4A526982432A4B5A61704718
:100D600029B1284A92690243264B9A6104E0254A38
:100D700092698243234B9A61704729B1214AD26913
:100D80000243204BDA6104E01E4AD26982431D4BC4
:100D9000DA61704729B11B4AD2680243194BDA6005
:100DA00004E0184AD2688243164BDA60704729B1D2
:100DB000144A12690243134B1A6104E0114A126982
:100DC0008243104B1A6170471449403908607047DC
:100DD0000F49C86470470B49C87170470948406A99
:100DE00040F0807007494862704701460020054A7C
:100DF00092680A4201D0012000E0002070470149BA
:100E000088727047001002400000FFF8FFFFF6FEF6
:100E100000004242D8004242201002408004424278
:100E200000127A0000093D000000002010000020A0
:100E300010B50446BE48844208D101218014FFF752
:100E4000A9FF0021A014FFF7A5FF16E0B9488442CE
:100E500008D101210014FFF7AAFF00212014FFF799
:100E6000A6FF0AE0B448844207D10121C013FFF76E
:100E70009EFF0021E013FFF79AFF10BD10B500227E
:100E8000028802F441520B884C8823438C88234308
:100E9000CC8823430C8923434C8923438C892343E7
:100EA000CC8923431A430280838B4FF2FF74234083
:100EB00083830B8A038210BD2DE9F04F85B0054670
:100EC0000C464FF0000902274FF000084FF0010BCD
:100ED0000026B246A88B4FF240010840A8830220AA
:100EE0002884B5F81C90A068022801D100BF38E022
:100EF000A08810B94FF0010B01E04FF0020B8D48B4
:100F0000854200D100E000BF6846FFF7BCFEDDF877
:100F100000A0E088B0F5007F0AD14FEA1A2000EB6C
:100F200080004000A168B0FBF1F0401D86B20BE0EC
:100F30004FEA4B10BAFBF0F000EB80004000A168D4
:100F4000B0FBF1F0401D86B20A20B6FBF0F606F0C9
:100F50000108A6EB0800C0F34F074FF6FF7000EA48
:100F60000828022F01DBFF2F02DD02274FF00008C7
:100F7000E08840EA080038432884A088A189084313
:100F8000618808432188084340F4006040EA090969
:100F9000A5F81C9005B0BDE8F08F002101804180CC
:100FA0008180C180018141818181C18107210182CC
:100FB00070470021018041808180C18002218160D1
:100FC00000218181704721B1028842F040020280F5
:100FD00004E002884FF6BF731A400280704721B1C7
:100FE000828B42F48062828304E0828B4FF6FF336F
:100FF0001A408283704730B5002400230C1101256C
:10100000A540ABB21AB185881D43858002E0858872
:101010009D43858030BD1AB183880B43838002E0F5
:1010200083888B438380704781817047014688891C
:101030007047A1F57E42FF3A04D0028842F48072E4
:10104000028004E002884FF6FF631A400280704776
:1010500021B1828842F00402828004E082884FF647
:10106000FB731A408280704702884FF2FF731A4068
:10107000028002880A4302807047018841F480514F
:101080000180704721B1028842F40052028004E0DE
:1010900002884DF6FF731A40028070470246002016
:1010A000012901D0108B00E0908A70470146088A20
:1010B0007047B1F5804F04D1028842F4804202802B
:1010C00004E002884BF6FF731A4002807047024624
:1010D000002013890B4201D0012000E0002070475E
:1010E000CA4302817047F0B5024600200024002365
:1010F000002501F00F070126BE40B4B20B110126F6
:101100009E40B3B2968806EA03051689264202D0AD
:101110000DB1012000E00020F0BD10B5002201F06B
:101120000F040123A3409AB2D343038110BD0000F2
:101130000030014000380040003C004010B504463B
:10114000FE48844208D10121C014FFF723FE00218C
:10115000E014FFF71FFEC4E0B4F1804F08D1012175
:101160000846FFF724FE00210120FFF720FEB8E02B
:10117000F348844208D101210220FFF718FE002124
:101180000220FFF714FEACE0EE48844208D10121B2
:101190000420FFF70CFE00210420FFF708FEA0E06A
:1011A000E948844208D101210820FFF700FE002110
:1011B0000820FFF7FCFD94E0E448844208D10121B7
:1011C0001020FFF7F4FD00211020FFF7F0FD88E06C
:1011D000DF48844208D101212020FFF7E8FD0021EB
:1011E0002020FFF7E4FD7CE0DA48844208D10121A9
:1011F0004014FFF7CFFD00216014FFF7CBFD70E036
:10120000D548844209D10121C804FFF7C3FD00215C
:101210004FF40020FFF7BEFD63E0D048844209D1BF
:1012200001210805FFF7B6FD00214FF48010FFF7FC
:10123000B1FD56E0CA48844209D101214805FFF7B3
:10124000A9FD00214FF40010FFF7A4FD49E0C548B7
:10125000844208D101214020FFF7A9FD0021402050
:10126000FFF7A5FD3DE0C048844208D10121802060
:10127000FFF79DFD00218020FFF799FD31E0BB487D
:10128000844208D101218015FFF791FD0021A015AE
:10129000FFF78DFD25E0B648844209D101210804FD
:1012A000FFF778FD00214FF48030FFF773FD18E061
:1012B000B048844209D101214804FFF76BFD0021A9
:1012C0004FF40030FFF766FD0BE0AB48844208D1D5
:1012D00001218804FFF75EFD00214FF48020FFF715
:1012E00059FD10BD00220288944B98420ED0994BB4
:1012F00098420BD0B0F1804F08D0914B984205D066
:10130000904B984202D0904B984204D14FF68F7385
:101310001A404B881A438D4B984207D08C4B984209
:1013200004D04FF6FF431A40CB881A4302808B88C3
:1013300083850B880385814B98420BD0854B98425F
:1013400008D08B4B984205D08A4B984202D08A4BEA
:10135000984201D10B7A038601238382704770B5CE
:10136000002400220023058C4FF6FE7635400584CC
:10137000028C8388048B4FF68F752C40B51E2C4051
:101380000D882C43751E2A400D892A434D882A4317
:101390006A4DA8420BD06F4DA84208D0744DA842A8
:1013A00005D0744DA84202D0734DA84213D14FF618
:1013B000F7752A404D892A434FF6FB752A408D88E0
:1013C0002A434FF6FF652B404FF6FF552B408D8982
:1013D0002B43CD892B4383800483CD88858602846B
:1013E00070BD70B5002400220023058C4FF6EF7607
:1013F00035400584028C8388048B48F6FF752C40A9
:101400004FF6FF452C400D884FF6FF7606EA05257E
:101410002C434FF6DF752A400D8906EA05152A434D
:101420004D8806EA05152A43444DA84202D0494D8D
:10143000A8421DD14FF67F752A404D894FF6FF76A1
:1014400006EA05152A434FF6BF752A408D8806EA3D
:1014500005152A434FF6FF352B404FF2FF752B4001
:101460008D8906EA85052B43CD8906EA85052B4340
:1014700083800483CD880587028470BD70B5002405
:1014800000220023058C4FF6FF6635400584028C50
:101490008388848B4FF68F752C404FF6FC752C405B
:1014A0000D882C434FF6FF552A400D894FF6FF76E5
:1014B00006EA05252A434D8806EA05252A431F4DDD
:1014C000A84202D0234DA8421DD14FF2FF752A40F9
:1014D0004D894FF6FF7606EA05252A434FF6FF357C
:1014E0002A408D8806EA05252A434EF6FF752B40D3
:1014F0004DF6FF752B408D8906EA05152B43CD89E6
:1015000006EA05152B4383808483CD888587028472
:1015100070BD70B5002200230024058C4EF6FF76C6
:1015200035400584038C8488828B48F6FF752A40F9
:101530004FF6FF452A400D8820E00000002C0140B6
:101540000004004000080040000C00400010004073
:101550000014004000340140004C014000500140A4
:101560000054014000180040001C004000200040D2
:101570000040014000440140004801404FF6FF7622
:1015800006EA05252A434DF6FF752B400D8906EA2C
:1015900005352B434D8806EA05352B43FA4DA84205
:1015A00002D0FA4DA84208D14BF6FF752C408D8928
:1015B0004FF6FF7606EA85152C4384808283CD881A
:1015C000A0F84050038470BD828B4FF2FF331A4065
:1015D0008283828B4FF6FF7303EA01231A438283CF
:1015E0007047F0B50C461546002200210026078CF6
:1015F0004EF6FF7C07EA0C070784828B018C4FF6BE
:10160000FF7707EA043640F6FF473A404FF6FF7788
:1016100007EA05273A434FF6FF7707EA03373A43CD
:10162000D94FB8420ED0D94FB8420BD0B0F1804F4D
:1016300008D0D74FB84205D0D64FB84202D0D64FC7
:10164000B84206D14DF6FF77394046F4805739430A
:1016500005E047F6FF57394044F480573943828309
:101660000184F0BD828B4FF6F3731A408283828B24
:101670000A4382837047F0B50C46154600220021CC
:101680000026078C4FF6FF6C07EA0C070784828B55
:10169000018C4FF6FF7707EA04264FF60C773A40A5
:1016A0004FF6FF7707EA03172F433A43B64FB84286
:1016B0000ED0B64FB8420BD0B0F1804F08D0B44F27
:1016C000B84205D0B34FB84202D0B34FB84206D1AA
:1016D0004FF6FF57394046F48077394305E04FF223
:1016E000FF57394044F48077394382830184F0BD49
:1016F000028B4FF2FF331A400283028B4FF6FF73C7
:1017000003EA01231A4302837047F0B50C461546DD
:10171000002200210026078C4FF6EF7C07EA0C0719
:101720000784028B018C4FF6FF7707EA041640F618
:10173000FF473A404FF6FF7707EA03373A434FF641
:10174000FF7707EA05273A438F4FB8420ED08F4FF5
:10175000B8420BD0B0F1804F08D08D4FB84205D0C1
:101760008C4FB84202D08C4FB84206D14FF6DF778B
:10177000394046F01007394305E04FF65F773940AE
:1017800044F01007394302830184F0BD028B4FF609
:10179000F3731A400283028B0A4302837047F0B549
:1017A0000C46154600220021068C4FF6FE773E407F
:1017B0000684028B018C4FF60C7632407E1C06EAC2
:1017C00003162E433243704EB0420ED06F4EB042DD
:1017D0000BD0B0F1804F08D06D4EB04205D06D4EA9
:1017E000B04202D06C4EB04206D14FF6FD76314089
:1017F00044F00106314305E04FF6F576314044F000
:101800000106314302830184F0BD70B505460C46E4
:101810005D4885420ED05D4885420BD0B5F1804FC2
:1018200008D05B48854205D05A48854202D05A48C4
:10183000854200D100E000BF208850B92389A288EA
:1018400061882846FFF7ABFFE1882846FFF79EFF37
:1018500025E0208804280AD12389A28861882846A7
:10186000FFF753FFE1882846FFF742FF17E0208883
:1018700008280AD12389A28861882846FFF7FBFE41
:10188000E1882846FFF7EEFE09E02389A2886188F7
:101890002846FFF7A6FEE1882846FFF795FE70BDB3
:1018A0002DE9F04105460C4600260127608808B95D
:1018B000022600E00026A088012801D1022700E0CE
:1018C00001272088A0B92389A28861882846FFF7CC
:1018D00066FFE1882846FFF759FF23893A463146DB
:1018E0002846FFF712FFE1882846FFF701FF13E0C3
:1018F0002389A28861882846FFF707FFE1882846E8
:10190000FFF7F6FE23893A4631462846FFF747FFA0
:10191000E1882846FFF73AFFBDE8F0810A884B8846
:101920001A438B881A43CB881A430B891A434B8975
:101930001A438B891A43A0F8442070474FF6FF7171
:10194000818000210180C1804180017270470021A7
:10195000018041808180C180018141818181C1817B
:101960007047002101804180012181800021C180D8
:10197000018170470021018041808180C180018107
:101980004181818170470000002C014000340140FA
:101990000004004000080040000C004021B1028813
:1019A00042F00102028004E002884FF6FE731A4002
:1019B0000280704731B1B0F8442042F40042A0F8F0
:1019C000442005E0B0F84420C2F30E02A0F8442001
:1019D00070471AB183890B43838102E083898B436B
:1019E000838170478182704741EA0203A0F8483042
:1019F00070471AB183890B43838102E083898B434B
:101A00008381704701894FF6F87211400181704758
:101A10000A46002101894FF68F7319401143018155
:101A2000704730B504460D4629462046FFF7F0FFC3
:101A3000208940F00700208130BD2DE9F0410446A7
:101A40000D4616461F46602D06D13B460122314603
:101A50002046FFF75AFE05E03B460122314620466C
:101A6000FFF79DFE29462046FFF7D2FF208940F070
:101A700007002081BDE8F08130B50C4600210189C6
:101A8000C9B24FF6FF7505EA0325154325432943DF
:101A9000018130BD2DE9F04105460E4617469846B6
:101AA000002443463A4631462846FFF7E5FF2C8995
:101AB0004FF6F870044044F007044FF68F7004406E
:101AC00044F070042C81BDE8F081F0B504460D4669
:101AD00016461F463B46324629462046FFF7CCFFB6
:101AE000208940F480402081F0BD018582827047CA
:101AF0000A46002101884FF68F7319401143018077
:101B00007047F0B50C4615461E4600210022002302
:101B10000189028B038C4FF6F877394021434FF649
:101B2000FC473A4040F201173A434FF6DD773B401D
:101B30004FF6FF7707EA06172F433B4301810283E5
:101B40000384F0BD0A460021018B4FF68F731940C4
:101B50001143018370470A460021018B48F6FF7349
:101B600019404FF6FF7303EA0223194301837047BC
:101B70000A460021818B4FF68F73194011438183F0
:101B800070470A460021818B48F6FF7319404FF6D3
:101B9000FF7303EA022319438183704721B102884E
:101BA00042F08002028004E002884FF67F731A4000
:101BB0000280704721B1828842F00402828004E0F2
:101BC00082884FF6FB731A408280704721B1828869
:101BD00042F00802828004E082884FF6F7731A40D0
:101BE0008280704721B1828842F00102828004E045
:101BF00082884FF6FE731A40828070470A460021A1
:101C0000018B4FF6F77319401143018370470A4661
:101C10000021018B4FF2FF7319404FF6FF7303EA67
:101C200002231943018370470A460021818B4FF636
:101C3000F77319401143818370470A460021818B55
:101C40004FF2FF7319404FF6FF7303EA0223194363
:101C5000818370470A460021018B4FF6FB731940C0
:101C60001143018370470A460021018B4FF6FF3371
:101C700019404FF6FF7303EA0223194301837047AB
:101C80000A460021818B4FF6FB7319401143818373
:101C900070470A460021818B4FF6FF3319404FF6FB
:101CA000FF7303EA02231943818370470A46002128
:101CB000018B4FF67F7319401143018370470A4629
:101CC0000021018BC1F30E014FF6FF7303EA0223DB
:101CD0001943018370470A460021818B4FF67F73B9
:101CE00019401143818370470A460021818BC1F35B
:101CF0000E014FF6FF7303EA0223194381837047F5
:101D00000A460021018C4FF6FD73194011430184EE
:101D100070470A460021018C4FF6F77319401143B2
:101D2000018470470A460021018C4FF6DF73194089
:101D30004FF6FF7303EA02131943018470470A4602
:101D40000021018C4FF67F7319404FF6FF7303EAB1
:101D500002131943018470470A460021018C4FF693
:101D6000FF5319404FF6FF7303EA0223194301841E
:101D700070470A460021018C4FF2FF7319404FF65D
:101D8000FF7303EA02231943018470470A460021C6
:101D9000018C4DF6FF7319404FF6FF7303EA0233CF
:101DA00019430184704730B5002301248C40A3B24D
:101DB000048C9C430484048C02FA01F5ADB22C43DC
:101DC000048430BD30B5002304248C40A3B2048CBD
:101DD0009C430484048C02FA01F5ADB22C430484C4
:101DE00030BD70B503460020002418461830012588
:101DF0008D40ACB21D8CA5431D8409B1082909D1C1
:101E000000EB6100056825F0700505600568154365
:101E100005600EE00D1FC5F34E052844056825F446
:101E2000E045056005684FF6FF7606EA0226354371
:101E3000056070BD21B1028842F00202028004E018
:101E400002884FF6FD731A400280704721B1028864
:101E500042F00402028004E002884FF6FB731A404D
:101E60000280704721B1828842F08002828004E0C3
:101E700082884FF67F731A408280704702884FF63F
:101E8000F7731A40028002880A43028070478288F2
:101E90004FF68F731A40828082880A43828070478F
:101EA00002894FF6F8731A40028102890A430281BF
:101EB000704702894FF67F731A40028102890A43F4
:101EC00002817047818470478185704781867047A1
:101ED0000187704781877047A0F8401070470288DB
:101EE0004FF6FF431A40028002880A43028070477F
:101EF0000146888E70470146088F70470146888FDB
:101F000070470146B1F8400070470146888C704721
:101F10000146088D704702460020138A0B4201D00B
:101F2000012000E000207047CA430282704730B5AC
:101F30000246002000230024158A05EA0103958942
:101F400005EA010413B10CB1012000E0002030BD0E
:101F5000CA4302827047000010B50446FB48844221
:101F600009D101218803FEF715FF00214FF48040BD
:101F7000FEF710FF32E0F648844209D101214804FF
:101F8000FEF715FF00214FF40030FEF710FF25E0AB
:101F9000F048844209D101218804FEF708FF00219E
:101FA0004FF48020FEF703FF18E0EB48844209D18C
:101FB0000121C804FEF7FBFE00214FF40020FEF7CC
:101FC000F6FE0BE0E548844208D101210805FEF742
:101FD000EEFE00214FF48010FEF7E9FE10BD2DE962
:101FE000F04786B005460E460024A24600BFA14633
:101FF0000027B08900B100BF2F462C8A4CF6FF7035
:102000000440F08804432C82AC894EF6F31004405F
:10201000B08831890843718908430443AC81AC8A94
:102020004FF6FF400440B0890443AC8201A8FEF79C
:102030002AFEC648874202D1DDF810A001E0DDF893
:102040000CA0A88910F4004F08D00AEBCA0000EBDE
:102050000A1031684900B0FBF1F807E00AEBCA004A
:1020600000EB0A1031688900B0FBF1F86420B8FB7E
:10207000F0F004012009642101FB1089A88910F403
:10208000004F08D0322000EBC900B0FBF1F000F0A7
:102090000700044308E0322000EB09106421B0FB84
:1020A000F1F000F00F0004432C8106B0BDE8F0878A
:1020B0004FF41651016000218180C18001810C2103
:1020C000418100218181704710B502460020108AAD
:1020D0004FF2FF0318400B884C8823438C8823431E
:1020E000CC8823431843108210BD00210180418019
:1020F0008180C180704721B1828942F4005282817F
:1021000004E082894DF6FF731A4082817047F0B572
:1021100003460024002600250020A1F510676A3F31
:1021200000D100BF1846C1F3421401F01F06012779
:1021300007FA06F5012C01D10C3004E0022C01D184
:10214000103000E014301AB107682F43076002E036
:102150000768AF430760F0BD1AB1838A0B438382DF
:1021600002E0838A8B4383827047028A4FF6F073C2
:102170001A400282028A0A430282704782894FF221
:10218000FF731A40828182890A438281704721B19C
:10219000828942F00202828104E082894FF6FD7357
:1021A0001A4082817047028A4FF6DF731A4002821A
:1021B000028A0A430282704721B1028A42F48042B5
:1021C000028204E0028A4BF6FF731A4002827047D3
:1021D000C1F308028280704701468888C0F3080076
:1021E0007047818941F0010181817047028BD2B231
:1021F0000283028B42EA012202837047028B02F4BF
:102200007F420283028B0A430283704721B1828A94
:1022100042F02002828204E0828A4FF6DF731A4085
:102220008282704721B1828A42F01002828204E0E9
:10223000828A4FF6EF731A408282704721B1828AF8
:1022400042F00802828204E0828A4FF6F7731A4055
:102250008282704721B1828942F40042828103E088
:102260008289C2F30E028281704721B1828A42F4D0
:102270000062828204E0828A4FF2FF731A408282F7
:102280007047828A4FF6FB731A408282828A0A4321
:102290008282704721B1828A42F00202828204E087
:1022A000828A4FF6FD731A408282704702460020F0
:1022B000B1F5007F00D100BF13880B4201D001208F
:1022C00000E00020704701F40072B2F5007F00D1F9
:1022D00000BFCA430280704770B502460024002345
:1022E00000250020A1F510666A3E00D100BFC1F3B1
:1022F000421501F01F03012606FA03F3012D02D156
:102300009689334006E0022D02D1168A334001E05F
:10231000968A33400C12012606FA04F416883440DB
:1023200013B10CB1012000E0002070BD10B50022F7
:102330000023A1F510646A3C00D100BF0A120124F9
:102340009440A3B2DC43048010BD0000003801407B
:102350000044004000480040004C00400050004055
:1023600008B501210520FEF7FBFC01217348FEF7AB
:1023700014FB01217248FEF710FB4FF40140ADF849
:10238000000003208DF8020010208DF8030069463C
:102390006C48FEF733FA01210920FEF7E1FC48F210
:1023A0003800ADF8000003208DF8020010208DF8F1
:1023B000030069466448FEF721FA08BD10B563487A
:1023C0000078112878D2DFE800F0AD09131F293515
:1023D0003F4B55616B78828E949CA2005C4840888C
:1023E0004FF080418885C9135748FEF7B2FA9AE04A
:1023F0005748408840F6C911081A89078885C913CB
:102400005148FEF7A8FA8EE0514880884FF080418D
:10241000888589154B48FEF79CFA84E04C488088F3
:1024200040F6C911081A8907888589154548FEF7BD
:1024300092FA78E04648C0884FF080418885202194
:102440004148FEF786FA6EE04148C08840F6C9115F
:10245000081A8907888520213B48FEF77CFA62E04C
:102460003B4800894FF08041888510213648FEF7AF
:1024700070FA58E03648008940F6C911081A8907F1
:10248000888510213048FEF766FA4CE030484089D4
:102490004FF08041888508212B48FEF75AFA42E028
:1024A0002B48408940F6C911081A890788850821F8
:1024B0002548FEF750FA36E034E0254880894FF091
:1024C00080418885C9131F48FEF743FA2BE0204856
:1024D000808940F6C911081A89078885C9131948E7
:1024E000FEF739FA1FE01A48C0894FF0804188850D
:1024F00019E01748C08940F6C911081A890788856C
:1025000011E01348008A4FF0804188850BE01048A5
:10251000008A40F6C911081A8907888500200B49EE
:10252000087000E000BF00BF10BD10B5074800787C
:10253000401C06490870FFF741FF10BD0002300043
:102540000004300000080140000C0140140000208D
:10255000E600002008B54FF4A060FDF763FE1C20E4
:102560008DF8000000208DF801008DF80200012098
:102570008DF803006846FDF75AFE08BD08B54FF414
:10258000A060FDF74FFE1D208DF8000000208DF8A3
:10259000010001208DF802008DF803006846FDF768
:1025A00046FE08BD08B54FF4A060FDF73BFE1E20B7
:1025B0008DF8000000208DF8010002208DF8020047
:1025C00001208DF803006846FDF731FE08BD0EB509
:1025D00001210846FEF7D1FB4FF08040FEF7AEFD2B
:1025E00040F6C910ADF804004720ADF80000002007
:1025F0008DF80800ADF80600ADF8020069464FF00E
:102600008040FEF76FFE01218807FFF78DFC012255
:1026100011469007FFF7DDF900214FF08040FFF7EA
:10262000BDF90EBD0EB501210220FEF7A6FB4748FD
:10263000FEF784FD0920ADF804004720ADF8000046
:102640000020ADF806008DF80800ADF802006946DC
:102650003E48FEF747FE01213C48FFF765FC01229A
:1026600011463A48FFF7B5F900213848FFF796F9C7
:102670000EBD0EB501210420FEF77FFB3448FEF7A6
:102680005DFD4FF4FA60ADF804004720ADF800009E
:102690000020ADF806008DF80800ADF8020069468C
:1026A0002B48FEF71FFE01212948FFF73DFC0122C0
:1026B00011462748FFF78DF900212548FFF76EF9ED
:1026C0000EBD0EB501210820FEF757FB2148FEF78D
:1026D00035FD4FF6FF70ADF804004720ADF800005F
:1026E0000020ADF80600ADF8020069461948FEF773
:1026F000F9FD01211748FFF717FC01221146154883
:10270000FFF767F900211348FFF748F90EBD10B530
:10271000FFF720FFFFF75BFFFFF744FFFFF7A9FF7D
:1027200010BD10B501218807FFF738F901210848CD
:10273000FFF734F910BD10B500214FF08040FFF7CE
:102740002DF900210248FFF729F910BD00040040CF
:1027500000080040000C004008B501210420FEF7ED
:10276000FFFA4FF48040ADF8000028208DF80300F8
:1027700069466B48FEF742F84FF46050ADF8000030
:1027800010208DF8030003208DF80200694664488C
:10279000FEF734F808BD70B50546012400206149F4
:1027A000487000BF28E02C4203D001205E49086039
:1027B00002E000205C4908604FF001005B490860BE
:1027C0004FF0320000F0F1FF00205949C1F8AC0190
:1027D000322000F0EAFF01205549C1F8AC0108465B
:1027E000D0F8380120B14F48407820434D49487017
:1027F0004FF6FF7000EA4404FF2CD4DD70BD10B525
:1028000000204C4908604C490878FFF7C4FF4A494A
:102810004878FFF7C0FF01204549C1F8B0014148A1
:102820004078732801D1002010BD0120FCE770B56D
:102830000024012500203F4908603F490878FFF740
:10284000AAFF3D494878FFF7A6FF022425E00125AD
:102850001CE00120354908604FF000003449C1F800
:10286000AC014FF0320000F0A0FF01203049C1F868
:10287000AC010846D0F8380120B12A48005D284351
:10288000284908554FF6FF7000EA4505FF2DE0DDA9
:10289000322000F08AFF601CC4B2092CD7DB012073
:1028A0002449086070BD002004E000211D4A115435
:1028B000411CC8B20928F8DB704710B5FFF7F3FFD9
:1028C000FFF7B5FF1748C0781649097940EA01209B
:1028D0001A49088000241BE0194810F81400401E13
:1028E000012101FA00F01549098808420ED1144867
:1028F00010F81400401E012101FA00F00F49097878
:10290000084010490870601CC0B210BD601CC4B201
:10291000102CE1DB0020F8E701460248405C7047DC
:1029200000080140A8010020B4012142AC0121426D
:1029300000002142B0012142180000203C0000208C
:102940001A0000203A00002008B501210820FEF7F7
:1029500007FA4FF48040ADF8000010208DF8030016
:1029600003208DF8020069461748FDF747FF4FF432
:1029700080411548FDF7EDFF08BD10B54FF48041CB
:102980001148FDF7E8FF4FF4FA7000F026FF4FF40E
:1029900080410D48FDF7DDFF4FF4FA7000F01DFF98
:1029A0004FF480410848FDF7D6FF4FF4FA7000F06D
:1029B00014FF4FF480410448FDF7CBFF4FF4FA7049
:1029C00000F00BFF10BD0000000C014008B5012114
:1029D0000820FEF7C5F98020ADF8000048208DF8EA
:1029E000030069460E48FDF709FF08BD10B58021B8
:1029F0000B48FDF794FF80B90A2000F0EEFE80211D
:102A00000748FDF78CFF30B900BF80210448FDF76F
:102A100086FF0028F9D0012010BD0020FCE700004F
:102A2000000C014070B50546002405E0601CC4B2EE
:102A3000C82C01DD002070BD02212F48FEF747FBA6
:102A40000028F3D029462C48FEF7EEFA002405E0D2
:102A5000601CC4B2C82C01DD0020ECE7012126482F
:102A6000FEF735FB0028F3D02348FEF7DFFAC0B2AB
:102A7000E1E708B5012141F20400FEF771F9E02019
:102A8000ADF8000018208DF8030003208DF8020037
:102A900069461A48FDF7B2FEE0211848FDF759FFD4
:102AA0000020174908804FF48270488000208880F9
:102AB0000220C88001200881400248813820888196
:102AC0000020C881072008820B48FEF7D7F90121B2
:102AD0000948FEF778FAFF20FFF7A4FF08BD10B5FC
:102AE00004460748848101460348FEF7C7F90121DF
:102AF0000148FEF768FA10BD0030014000080140AF
:102B0000B201002010B500240020D14908604FF028
:102B10009000FFF787FF0020FFF784FF0020FFF7FA
:102B200081FF0020FFF77EFFFF20FFF77BFF44EAD5
:102B30000024FF20FFF776FF04430120C549C1F8B8
:102B4000B001204610BD08B501210820FEF708F9A4
:102B50004FF48050ADF8000010208DF803000320E2
:102B60008DF802006946BC48FDF748FE4FF48051DD
:102B7000B948FDF7EEFEFFF77CFF0820FFF7AFFF37
:102B8000FFF7C0FFB549088008BD10B5002400203C
:102B9000AF4908604FF00500FFF744FFFF20FFF743
:102BA00041FF04460120AB49C1F8B001204610BDE9
:102BB00010B504460020A64908604FF00100FFF759
:102BC00031FF2046FFF72EFF0120A249C1F8B001D6
:102BD00010BD10B500209E4908604FF00600FFF7B9
:102BE00021FF01209B49C1F8B00110BD10B50020A4
:102BF000974908604FF00400FFF714FF0120954942
:102C0000C1F8B00110BD2DE9F04106460C4617464B
:102C100000208F4908604FF00300FFF703FFC4F363
:102C20000740FFF7FFFEC4F30720FFF7FBFEE0B20B
:102C3000FFF7F8FE002505E0FF20FFF7F3FE7055D3
:102C4000681C85B2BD42F7DB012081490860BDE800
:102C5000F08110B500BFFFF798FF10F0010FFAD117
:102C600010BD2DE9F04106460C461746FFF7B1FFAF
:102C70000020774908604FF00200FFF7D3FEC4F34D
:102C80000740FFF7CFFEC4F30720FFF7CBFEE0B20B
:102C9000FFF7C8FE002504E0705DFFF7C3FE681C67
:102CA00085B2BD42F8DB012069490860FFF7D1FF1A
:102CB000BDE8F0812DE9F04107460E461446F0B21A
:102CC000C0F58075AC4200DC254612E02A4631464C
:102CD0003846FFF7C6FFAC4200D10BE02F442E442C
:102CE000601B84B2B4F5807F02DD4FF4807500E094
:102CF0002546EBE700BFBDE8F08110B5044624038C
:102D0000FFF767FFFFF7A5FF0020514908604FF06C
:102D10002000FFF787FEC4F30740FFF783FEC4F3EC
:102D20000720FFF77FFEE0B2FFF77CFE0120494954
:102D3000C1F8B001FFF78DFF10BD2DE9F0478146C6
:102D40000F4616464FEA1738C7F30B0ACAF58054E8
:102D5000A64200DC344644E04FEA08314FF480528A
:102D60003F48FFF750FF002508E00AEB05003C490B
:102D7000085CFF2800D003E0681C85B2A542F4DBA4
:102D800000BFA54216DA4046FFF7B7FF002507E06F
:102D900019F8050005EB0A01314A5054681C85B248
:102DA000A542F5DB4FEA08314FF480522C48FFF77B
:102DB00081FF04E0224639464846FFF77BFFA642E2
:102DC00000D10FE008F101084FF0000AA1442744A8
:102DD000301B86B2B6F5805F02DD4FF4805400E010
:102DE0003446B9E700BFBDE8F08710B5FFF7F1FE44
:102DF000FFF72FFF0020164908604FF0C700FFF7CC
:102E000011FE01201349C1F8B001FFF722FF10BDE8
:102E100010B500200E4908604FF0B900FFF702FE20
:102E200001200C49C1F8B001032000F0BEFC10BD28
:102E300010B50020064908604FF0AB00FFF7F2FD27
:102E400001200449C1F8B001032000F0AEFC10BD20
:102E5000B081214200802142000C01403E00002050
:102E6000C40100200146A1F130020A2A1AD2DFE88B
:102E700002F00507090B0D0F11131517002011E0C3
:102E800001200FE002200DE003200BE0042009E008
:102E9000052007E0062005E0072003E0082001E008
:102EA000092000BF00BF7047F0B585B005460E464B
:102EB0001421684602F00BFE0024002700BF0CE03E
:102EC0000A20B5FBF0F100FB115030300DF8040082
:102ED000601CC4B20A20B5FBF0F5002DF0D12746E6
:102EE000002406E0381B401E1DF800003055601C11
:102EF000C4B2BC42F6DB0020305505B0F0BD000086
:102F000010B50024FE48007888BBFE4800780728EA
:102F100022DAFC480078401CFA490870FA48007828
:102F2000401CF949087008460078072801D10020A4
:102F3000087000240DE0F54830F81400F2490978D3
:102F400001EBC101F24A02EB410121F81400601CBF
:102F5000C4B2092CEFDB02E00020EE490870E9481A
:102F60000078002834DD0120EB49087030E0FFE7ED
:102F7000EA48006BB0F5FA4F24D2E84890F83000E8
:102F800010F00F0F04D1E549096B0809FFF7B5FEF2
:102F9000E248006B01024FF48072E148FFF7CDFE7A
:102FA000DE48006B401CDD490863DE48006840F0E5
:102FB0000100DC490860DC48007820F00100DA49B3
:102FC000087005E0D848007840F00100D649087044
:102FD00010BDCE48D549097830F81100D449D34AFC
:102FE000127821F81200704770B50546002423219D
:102FF000284602F092FC04460CB9012070BD641C06
:103000002078302805DB2078392802DC60785028C9
:103010000ED0207830280DDB207839280ADC607843
:10302000302807D16078392804DCA078502801D1F5
:103030000020E3E720784D2801D10020DEE7BDA184
:10304000284602F074FC90B1B648006840F4005085
:10305000B44908607821BA4802F017FD0020B94948
:103060008872B9A1BA4800F04AFD0120C6E7B9A1AB
:10307000284602F05CFC50B1AA48006840F4804049
:10308000A84908600020AF49C8720120B6E7B4A182
:10309000284602F04CFC040010D0A248006840F41E
:1030A0000040A04908600020A649C87204F1080049
:1030B00002F026FCA349087301209FE7ABA1284634
:1030C00002F035FC70B18E48007818B10120A94992
:1030D000087005E00120A849087000208E4908709A
:1030E00001208BE7A5A1284602F021FCB8B101F030
:1030F00055F93421894802F0EAFCA248406A874920
:10310000C862A048406A086301207D49087085486C
:10311000006840F001008349086001206EE79AA131
:10312000284602F004FC60B10020994908807449E7
:10313000087001209049087000207749087001202C
:103140005CE794A1284602F0F2FB70B100208949A7
:1031500008706B490870914908707248006840F027
:10316000100070490860012048E78DA1284602F050
:10317000DEFBA0B10020624908708B490870012075
:103180007D49087000206449087001F007F965481E
:10319000006840F020006349086001202EE783A109
:1031A000284602F0C4FB04001CD0002054490870DB
:1031B00001207A490870704908700020564908704B
:1031C00001F0ECF8E01D02F09BFB5E498872887A02
:1031D00001F046F95348006840F04000514908604A
:1031E00001200BE773A1284602F0A1FB88B140F251
:1031F000DF70FFF782FD4FF4807270494848FFF797
:103200009CFD4848006840F4805046490860012011
:10321000F4E66BA1284602F08AFB040023D00020CC
:103220003749087004F1080002F06AFB454948601C
:10323000486801F015F965A1284602F078FB0446BC
:10324000A01C02F05DFB354948853648006840F017
:1032500080003449086001204749087000202E4949
:1032600008700120CAE65AA1284602F060FBB0B1FE
:1032700000202349087001F091F80120414981F8AC
:103280002D002848006840F480702649086001201D
:10329000394908700020204908700120AEE64BA192
:1032A000284602F044FB040028D00020144908708E
:1032B00001F074F849A1284602F039FB0446601C6D
:1032C00002F01EFB1F494860486801F0C9F83FA1A1
:1032D000284602F02CFB0446A01C02F011FB194901
:1032E00008721048006840F400700E490860012020
:1032F0003B49087020490870002073E076E0000028
:10330000320100202401002027010020F8000020C5
:10331000680000202B0100202C0100203814002020
:10332000101200203C010020580100204100002024
:10333000E6000020233235355052414400000000A1
:10334000311300206C1400202350574D5200000010
:10335000003801402332353550554C4B00000000F9
:1033600023323535504D4F44000000002353746F15
:1033700070000000370100202901002023446F77EE
:103380006E000000081400202353544F500000002A
:103390004001002023566572692B00003501002092
:1033A00023466C6973740000330100202346526584
:1033B00061642D00235053320000000000F07D00B6
:1033C00023456E61626C65230000000047430000E6
:1033D0002344697361626C650000000023000000F3
:1033E000380100207B490870012007E67AA12846B1
:1033F00002F09DFA040017D000207949087000F00F
:10340000CDFFA01D02F07CFA76494872764800682C
:1034100040F48060744908600120744908700020FD
:103420006C4908700120E9E571A1284602F07FFA95
:1034300068B16D48006840F400606B490860012085
:103440006A4908700020634908700120D6E56AA126
:10345000284602F06CFA38B16348006840F48030C6
:10346000614908600120C9E566A1284602F05FFABB
:1034700038B15D48006840F400305B4908600120C5
:10348000BCE50020BAE52DE9FE4F044600260027E2
:10349000B046B146B246B34600200290019000907B
:1034A00000252046FFF7A0FD08B1BDE8FE8F2146AC
:1034B000574800F024FB042256A1204602F068FA87
:1034C00060B94748007810B1FFF71AFD7FE0464821
:1034D000006840F008004449086078E072E0029813
:1034E000012811D1605D50280CD0605D4D2809D0B5
:1034F000605DFFF7B7FC814606EB860009EB4000F4
:10350000C6B201E000200290019801282DD1605D33
:10351000542801D0012000E00020615D232901D062
:10352000012100E000210840691E615C4D2901D0A5
:10353000012100E00021084209D0605DFFF792FC04
:10354000824607EB87000AEB400087B20DE00020BF
:10355000019040F6C410874200DD07462F4820F84E
:1035600016702F480670002700260098012818D1F1
:10357000605DFFF777FC834608EB88000BEB4000AB
:103580001FFA80F82548A0F80080681C205C0D28F0
:1035900007D1B8F1640F02DCFFF71BFD01E0FFF774
:1035A000AFFC605D232801D101200290605D5028AE
:1035B00001D101200190605D542801D101200090CB
:1035C000681C85B2605D0A2801D0FF2D87DB00BF33
:1035D0006BE700002C010020234644656C2D0000A1
:1035E000320100206C1400203C0100202901002041
:1035F00023466F726D61740023464D51454E414222
:103600004C45000023464D5144495341424C45002E
:1036100000480040234D503300000000F800002017
:103620004100002008B501210820FDF799FB4FF467
:103630000050ADF8000010208DF8030003208DF835
:10364000020069460E48FDF7D9F84FF400510C48C6
:10365000FDF77FF908BD10B54FF400510848FDF79C
:103660007AF94FF4FA7000F0B8F84FF400510448BA
:10367000FDF76FF94FF4FA7000F0AFF810BD0000DD
:10368000000C014000B587B001214FF40170FDF737
:1036900067FB4FF40040FDF7CAFA1020ADF80400B4
:1036A00000208DF8070001A92348FDF7A7F823485B
:1036B000FCF726FE002002908DF80C008DF80D001E
:1036C0004FF4602004900020059001208DF8180030
:1036D00002A91A48FCF73BFE01211848FCF763FEDB
:1036E0001648FCF782FE00BF1448FCF783FE002852
:1036F000FAD11248FCF788FE00BF1048FCF789FE9B
:103700000028FAD107B000BD10B5044607230122F6
:1037100021460A48FCF7B3FE01210848FCF783FE66
:1037200000BF02210548FCF7D9FF0028F9D0034863
:10373000FCF70CFF10BD0000000801400024014010
:1037400030B538480068384AB0FBF2F1B1F1807FFB
:1037500001D301201DE021F07F40401E4FF0E02208
:10376000506150170F22002807DA13071D0E2F4B48
:1037700000F00F04241F1D5503E013071C0E2C4BF3
:103780001C5400BF00204FF0E02290610720106120
:10379000002008B100BFFEE74FF0E020006920F0F4
:1037A00001004FF0E021086130BD224908604FF070
:1037B000E021096941F001014FF0E022116100BFF1
:1037C0001C4909680029FBD14FF0E021096921F06B
:1037D00001014FF0E022116170474FF47A714143CB
:1037E000144A11604FF0E021096941F001014FF0E6
:1037F000E022116100BF0F4909680029FBD14FF099
:10380000E021096921F001014FF0E02211617047C8
:103810000848006820B107480068401E0549086054
:10382000704700009401002040420F0018ED00E0B6
:1038300000E400E048000020014600BF704700BFE0
:10384000FE4A128812F0400FFAD0C2B2FB4B1B1D89
:103850001A80704708B54FF4A060FCF7E3FC252000
:103860008DF8000001208DF8010000208DF8020085
:1038700001208DF803006846FCF7D9FC08BD08B5A7
:103880004FF4A060FCF7CEFC26208DF8000001204C
:103890008DF801008DF802008DF803006846FCF7F2
:1038A000C6FC08BD08B54FF4A060FCF7BBFC2720A0
:1038B0008DF8000001208DF8010002208DF8020033
:1038C00001208DF803006846FCF7B1FC08BD08B57F
:1038D000012144F20400FDF743FA4FF40070ADF803
:1038E000000003208DF8020018208DF803006946BF
:1038F000D348FCF783FF4FF48060ADF8000004204C
:103900008DF803006946CE48FCF778FF08BD08B57E
:1039100001210420FDF724FA01214804FDF72DFAC6
:103920000420ADF8000003208DF8020018208DF867
:1039300003006946C248FCF761FF0820ADF80000AB
:1039400004208DF803006946BD48FCF757FF08BD09
:1039500008B501210820FDF703FA01218804FDF7CD
:103960000CFA4FF48060ADF8000018208DF80300C9
:1039700003208DF802006946B248FCF73FFF4FF480
:103980000060ADF8000004208DF803006946AD48E2
:10399000FCF734FF08BD10B50446012C04D1FFF735
:1039A00059FFFFF794FF0CE0022C04D1FFF767FFEB
:1039B000FFF7ADFF05E0032C03D1FFF773FFFFF71F
:1039C000C7FF10BD7FB505460C4600940020ADF83A
:1039D0000400ADF80600ADF80800ADF80C000C20AE
:1039E000ADF80A0069462846FEF7F9FA012240F2CE
:1039F00025512846FEF78BFB01212846FEF77BFB6D
:103A00007FBD1FB5044600940020ADF80400ADF85A
:103A10000600ADF80800ADF80C000C20ADF80A0067
:103A200069468948FEF7DBFA012240F225518648B3
:103A3000FEF76DFB01218448FEF75DFB1FBD10B54D
:103A400086B00446012144F20400FDF789F94FF4E1
:103A50000070ADF8140003208DF8160018208DF8C2
:103A6000170005A97648FCF7C9FE4FF48060ADF851
:103A7000140004208DF8170005A97148FCF7BEFE5C
:103A80004FF4A060FCF7CEFB25208DF8000001204C
:103A90008DF8010000208DF8020001208DF8030050
:103AA0006846FCF7C4FB01940020ADF80800ADF8AF
:103AB0000A00ADF80C00ADF810000C20ADF80E00B7
:103AC00001A95E48FEF78BFA012240F225515B48BE
:103AD000FEF71DFB01215948FEF70DFB06B010BD96
:103AE00070B504460D4629462046FEF771FB00BF1F
:103AF00040212046FEF7DAFB0028F9D070BD70B5F2
:103B000006460C46002505E014F8011B3046FFF779
:103B1000E7FF6D1C207810B1B5F5FA7FF4D370BDC6
:103B200010B586B00446142101A801F0D0FF01A908
:103B30002046FFF7B9F901A94048FFF7E0FF06B0BA
:103B400010BD70B504460D4621463C48FFF7D7FF2F
:103B50002846FFF7E5FF3DA13848FFF7D0FF70BDCD
:103B600010B508213548FEF7A1FB18B108213348EC
:103B7000FEF7A9FB40F225513048FEF7ADFB0028C7
:103B800036D040F225512D48FEF7D0FB2B48FEF7EA
:103B900023FBC4B22E48007810BB2E482E4909687A
:103BA00044542D480068401C2B49086008460068B2
:103BB000401E2849085C0A2804D027480068B0F550
:103BC000807F15D900202349234A12688854012098
:103BD0001F4908702149087000201F49086007E04C
:103BE0001F48007820B1532C02D101201D490870D4
:103BF00010BD10B540F225511B48FEF76DFBB8B360
:103C000040F225511848FEF791FB1748FEF7E4FAF9
:103C1000C4B20F48007858BB0E4814490968445490
:103C200012480068401C1149086008460068401EA0
:103C30000849085C0A2820D00C481AE000380140E6
:103C400000080140000C0140004800400A0000004C
:103C50004C000020101200205000002028010020FD
:103C600032010020370100200044004054000020B1
:103C700010E00068B0F5807F0CD900202749284A61
:103C800012688854012027490870274908700020CD
:103C90002349086010BD10B5002440F22551234887
:103CA000FEF71AFB002833D040F225511F48FEF7DB
:103CB0003DFB1E48FEF790FAC4B21D48007838BBA1
:103CC000232C06D100201B4908701B480978445456
:103CD00015E018480078401E1749085C0D280ED1E1
:103CE0000020144A127888540120114908700020DD
:103CF000104908704FF480411048FCF72CFE0E4824
:103D00000C49097844540B480078401C0949087054
:103D100010BD10B50148FFF7B6FB10BD1012002012
:103D2000540000204C0000202801002000480040E2
:103D30003901002058000020A9130020000C014088
:103D400010B50024FE480078012817D10020FC4956
:103D50000870FEF74BFE0446012C0FD10024F948F1
:103D6000F94A06CA06C0FFF776FC0120F749087039
:103D7000F7490870F349F748FFF7C1FE10BD7FB55A
:103D8000002600240020009001900290039000255E
:103D9000F148007800286ED00020EF490870FEF747
:103DA0008CFDEE490860FEF72AFDED4908700846D3
:103DB0000078002872D1EB480068E8490968884219
:103DC00000D17FBDE5480068E6490860E348006827
:103DD000401F0C2876D2DFE800F006210F18586B40
:103DE0004F622A45333C0020DF4908604FF496704B
:103DF000FFF7F3FC012669E00020DB4908604FF47F
:103E00009670FFF7EAFC022660E00020D6490860C1
:103E10004FF49670FFF7E1FC032657E00020D249EB
:103E200008604FF49670FFF7D8FC04264EE000209F
:103E3000CD4908604FF49670FFF7CFFC072645E0A8
:103E40000020C94908604FF49670FFF7C6FC0826A9
:103E50003CE00020C44908604FF49670FFF7BDFCB9
:103E6000092633E00020C04908604FF49670FFF740
:103E7000B4FC0A262AE070E00020BB4908604FF439
:103E80009670FFF7AAFC062620E00020B6490860DD
:103E90004FF49670FFF7A1FC052617E05EE00020C6
:103EA000B14908604FF49670FFF797FC0C260DE0BF
:103EB0000020AD4908604FF49670FFF78EFC0B268A
:103EC00004E0FFE70120A849086000BF00BF002E02
:103ED00043D00120A54908709C4908707822A44964
:103EE000A448FEF790FE3246A3A1684601F082FC8A
:103EF00069469848FFF703FE69469E4801F017FDA2
:103F00000446002CE4D0684601F023FD044409E097
:103F100014F8010B0DF80500681CC5B220782328A1
:103F200000D104E00E2D02DA20780028F0D100BF85
:103F30000C2D0EDA0D200DF805000A21681C0DF875
:103F400000100F2269467F4801F06DFD0120804975
:103F500008707C497F48FFF7D2FD1DE28048007859
:103F60000128FAD17D480068401F0C287AD2DFE88A
:103F700000F02D7A0652E6E5E4E39FE2C6E17F48D1
:103F800080880A307D4988800846808840F6FC0198
:103F9000884202DB084679498880794800680A30FF
:103FA000774908600846006840F69801884202D3C5
:103FB000084673490860724872A10268684601F0B9
:103FC00019FC69467248FFF79AFDE4E16B48808866
:103FD0000A386A49888008468088B0F52F7F02DC5D
:103FE0004FF42F708880664800680A38644908607A
:103FF00008460068B0F52F7F02D84FF42F70086094
:104000005F4860A10268684601F0F4FB69466048B9
:10401000FFF775FDBFE1594840880A30574948808D
:104020000846408840F6FC01884202DB08465349B6
:104030004880584800680A305649086008460068B9
:1040400040F69801884202D3084652490860514818
:1040500051A10268684601F0CDFB69464C48FFF764
:104060004EFD98E196E1454840880A38434948802A
:1040700008464088B0F52F7F02DC4FF42F7048804F
:10408000444800680A384349086008460068B0F5AB
:104090002F7F02D84FF42F7008603E483EA102687F
:1040A000684601F0A7FB69463948FFF728FD72E131
:1040B0003248C0880A303149C8800846C08840F676
:1040C000FC01884202DB08462C49C880354800685C
:1040D0000A30344908600846006840F69801884272
:1040E00002D308462F4908602E482FA1026868466F
:1040F00001F080FB69462648FFF701FD4BE11F48B0
:10410000C0880A381D49C8800846C088B0F52F7F8E
:1041100002DC4FF42F70C880224800680A38214919
:10412000086008460068B0F52F7F02D84FF42F7062
:1041300008603FE04AE070E0E0E093E005E1B8E0CD
:1041400044010020101200206000002028010020FF
:104150004C00002000380140420100208001002076
:104160006801002084010020B48121423B0100202D
:1041700000F07D003113002025644B00E600002094
:1041800010010020233250256454310D0A00000034
:10419000004800400C010020233150256454310DAB
:1041A0000A00000014010020233350256454310D0F
:1041B0000A000000FD48AFF210010268684601F0F5
:1041C00019FB6946FA48FFF79AFCE4E0F9480089D0
:1041D0000A30F84908810846008940F6FC01884207
:1041E00002DB0846F3490881F34800680A30F249C7
:1041F00008600846006840F6FC01884202D3084681
:10420000ED490860EC48EDA10268684601F0F2FA59
:104210006946E748FFF773FCBDE0E64800890A38C5
:10422000E449088108460089B0F52F7F02DC4FF48D
:104230002F700881E04800680A38DF4908600846A6
:104240000068B0F52F7F02D84FF42F700860DA486D
:10425000DAA10268684601F0CDFA6946D448FFF752
:104260004EFC98E0D34840890A30D249488108463C
:10427000408940F6FC01884202DB0846CD4948816E
:10428000D14800680A30D04908600846006840F606
:104290009801884202D30846CB490860CA48CBA19E
:1042A0000268684601F0A6FA6946C148FFF727FC94
:1042B00071E0C04840890A38BE49488108464089B3
:1042C000B0F52F7F02DC4FF42F704881BE480068A4
:1042D0000A38BD49086008460068B0F52F7F02D84B
:1042E0004FF42F700860B848B8A10268684601F022
:1042F00081FA6946AE48FFF702FC4CE0AD48808980
:104300000A30AC4988810846808940F6FC01884221
:1043100002DB0846A7498881AF4800680A30AE49E9
:1043200008600846006840F6FC01884202D308464F
:10433000A9490860A848A9A10268684601F05AFA8C
:1043400069469B48FFF7DBFB25E09A4880890A38DD
:104350009849888108468089B0F52F7F02DC4FF4A8
:104360002F7088819C4800680A389B49086008467D
:104370000068B0F52F7F02D84FF42F700860964880
:1043800096A10268684601F035FA69468848FFF749
:10439000B6FB00E000BF00BF00BF12E510B5302142
:1043A000914801F094FB30224FF4FA018E48FEF759
:1043B0002AFC8D48806A8D49884204D100BF8A4812
:1043C0000078092803DD3021874801F080FB10BD0B
:1043D00010B5002485488449886208200870084682
:1043E00090F82C404FF4FA60FEF787FC30224FF42F
:1043F000FA017D48FEF7A1FCFFF7D0FF7A4890F85C
:104400002C00A04206D07A48007840F00400784999
:10441000087005E07648007820F0040074490870C0
:1044200010BD70B500240025601E72490860FFF7BA
:10443000B5FF00BF0CE06C48401C005D012805D1B1
:104440006D484455681CC5B26A480460601CC4B21B
:10445000654890F82C00A042EDDC6848056070BD0E
:1044600010B504463421664801F031FB47F6105080
:1044700000EB0410010234226148FEF7C4FB6048DF
:10448000C06A5F49096B884209D25D480078A04242
:1044900005D15B4801785448401C405C20B9342168
:1044A000574801F014FB07E0554890F82A00554999
:1044B00008725348C06A086010BD70B504460025F4
:1044C0004F4890F83050002000EB041010F00F0F10
:1044D00006D147F6105101EB04110809FEF70DFC57
:1044E00047F6105000EB0410010234224448FEF756
:1044F00024FC2046FFF7B4FF4148006BA84206D0D9
:104500003B48007840F008003949087005E0384819
:10451000007820F008003649087070BD30B58BB0C7
:10452000282101A801F0D3FA0025002436480068AC
:1045300000283AD03448007810F0010F09D041210A
:104540003248FFF7CDFA3048006820F001002E49CC
:1045500008602D48007810F0080F09D02CA12B48D6
:10456000FFF7CDFA2848006820F0080026490860C7
:104570002548007810F0020F11D01B4890F82C004D
:10458000421E25A101A801F035F901A91F48FFF736
:10459000B6FA1D48006820F002001B4908601A485E
:1045A000007810F0100F49D03EE0DFE11401002048
:1045B00000480040E6000020180100202334502568
:1045C0006454310D0A0000001C01002023355025E1
:1045D0006454310D0A0000002001002023365025CC
:1045E0006454310D0A00000008140020785634127B
:1045F0005801002060010020111300205C01002000
:10460000381400206C1400203C01002000380140C8
:104610002343430D0A00000023446F776E2B4F4B5A
:104620002B25640D0A000000F6A1FE48FFF767FA8B
:10463000FD48006820F01000FB490860FA48007847
:1046400010F0200F48D0F94890F82C00002833DDF6
:10465000F7A1F448FFF753FA002423E0F348401C85
:10466000005D01281DD12046FFF7FAFEF148006BDE
:10467000F049C96A401A06D10021EC48401C015596
:10468000FFF7A6FE0DE0EB48006BEA49C96A431A42
:104690002246E9A101A801F0ADF801A9E148FFF720
:1046A0002EFA641CE14890F82C00A042D6D8E8A16C
:1046B000DC48FFF724FA09E0DC48E6A1426A01A8D9
:1046C00001F098F801A9D748FFF719FAD648006811
:1046D00020F02000D4490860D348007810F0800F03
:1046E0000DD0D4490878FFF7E8FEDBA1CD48FFF7ED
:1046F00006FACD48006820F08000CB490860CA481F
:10470000008810F4807F21D000240EE0C748401CB0
:10471000005D012808D12046FFF7A2FE0020C54910
:1047200048852046FFF7C9FE641CC04890F82C005D
:10473000A042EBD8FFF74CFECBA1BA48FFF7DFF958
:10474000B948006820F48070B7490860B64800880E
:1047500010F4007F1BD0C9A1B248FFF7D0F9C948B7
:10476000037AC9A1426801A801F044F801A9AD4843
:10477000FFF7C5F9C7A1AB48FFF7C1F9AA48006820
:1047800020F40070A84908600120C4490870A648B8
:10479000008810F4806F42D0BA48407AA34991F85B
:1047A0002C10884235DA0021B648427A9F48401CD6
:1047B0008154FFF70DFEFFF734FEB248417A9B4863
:1047C00090F82C00401E81421DD1B5480078401C55
:1047D000964981F82C00B2480068401C01D148621B
:1047E0000FE0AF480068FFF73BFE9248006B8F492F
:1047F00048620846406A0011102101EB00108B4905
:104800004862FFF7E5FDFFF70CFEA6A18548FFF71C
:1048100076F98548006820F4806083490860824802
:10482000008810F4006F25D0A1A17E48FFF767F93A
:104830000120A3490870FEF7D8FA002091490872B8
:104840007A49486281F82C0020217848401C01F008
:104850001CF9FFF7BDFD9BA17248FFF750F900203E
:10486000974908707048006820F400606E4908603D
:10487000FFF7D7FD6C48008810F4805F09D095A140
:104880006848FFF73CF96848006820F480506649A2
:1048900008606548008810F4005F67D07948807A26
:1048A00014287DDA8F480078002860D08E4801F007
:1048B00027F8C5B27348807AA84252D18A48001DB1
:1048C00001F01EF8044623462A4688A18648401E69
:1048D00000F090FF8449491E5248FFF710F96948DB
:1048E000807A401C6749887223208DF804000846AE
:1048F000807A642190FBF1F00A2190FBF1F201FB38
:1049000012003030C0B28DF805005E48807A90FB0E
:10491000F1F090FBF1F201FB12003030C0B28DF8E3
:1049200006005848807A90FBF1F201FB120030300B
:10493000C0B28DF8070050208DF8080052208DF885
:10494000090041208DF80A0044208DF80B000D204D
:104950008DF80C000A208DF80D0001A96548FFF7BD
:10496000CEF800205F49087063490860E2E06248C1
:104970000068401C6049086008460068B0F5967FF2
:104980003EDB4048807A401C3E49887223208DF8E7
:1049900004000846807A642190FBF1F00A2100E0CF
:1049A000BAE090FBF1F201FB12003030C0B28DF89A
:1049B00005003448807A90FBF1F090FBF1F201FBA6
:1049C00012003030C0B28DF806002E48807A90FB7D
:1049D000F1F201FB12003030C0B28DF80700502018
:1049E0008DF8080052208DF8090041208DF80A004A
:1049F00044208DF80B000D208DF80C000A207DE07E
:104A000098E0000023566572692B554152542B4F94
:104A10004B2B32303136303930362B3137360D0AA8
:104A200000000000003801403C0100200814002074
:104A300023000000381400204E616D653A25642E75
:104A40007478742D2D53697A653A25642D2D0000F4
:104A50000D0A0000230D0A0023456E61626C652B70
:104A60004F4B2E2E2E0D0A002344697361626C6534
:104A70002B4F4B2E2E2E0D0A00000000234F4B0D06
:104A80000A0000006C140020232564474325640DB0
:104A90000A000000234C503D300D0A003601002072
:104AA00060010020234644656C2B4F4B0D0A00002B
:104AB00023466F726D61742B53746172740D0A001A
:104AC0006A01002023466F726D61742B4F4B0D0AF3
:104AD00000000000235053322B4F4B2E2E2E0D0A78
:104AE0000000000039010020AA1300202325645093
:104AF00025640000004800406C0100208DF80D0086
:104B000001A9FD48FEF7FBFF0020FC490870FC49A5
:104B10000870FC4908600DE0FB48006820F4005074
:104B2000F94908600020F9498872AFF2DC01F848C1
:104B3000FEF7E5FFF448008810F4804F25D0F348D5
:104B4000C07A14281BDAEF480068401CED49086061
:104B500008460068142818DBEC48C27AEDA1F0483A
:104B600000F048FEEE49E448FEF7C9FFE748C07A86
:104B7000401CE649C8720020E249086005E0E248AE
:104B8000006820F48040E0490860DF48008810F4A5
:104B9000004F33D0DD48C07A14281CDAD9480068A9
:104BA000401CD849086008460068052826DBD7481D
:104BB000037BC27ADBA1DA4800F01CFED849CE485C
:104BC000FEF79DFFD148C07A401CD049C872002032
:104BD000CC49086012E0CD48027BD5A101A800F0C5
:104BE00009FE01A9CA48FEF78AFFC748006820F4F9
:104BF0000040C54908600020C0490870C2480068EC
:104C000010F4803F11D0FFF7C9FB0120CD4981F896
:104C10002E00FFF7DDFBCCA1BD48FEF770FFBA48C0
:104C2000006820F48030B8490860B748006810F484
:104C3000003F11D0FFF7B2FB0020C24981F82E00DF
:104C4000FFF7C6FBC5A1B248FEF759FFAE480068A2
:104C500020F40030AC4908600BB030BD10B5C4483A
:104C60000078002842D00020C2490870C04908706E
:104C7000C1490870B34890F82C00202825DAFFF7C6
:104C8000D0FBBE48006BAF4948620121AD4890F8A7
:104C90002C20401C8154BA480078401CB749087049
:104CA00008460078401CA74981F82C00B5480078D8
:104CB00020F02000B3490870FFF78AFBAF4908785D
:104CC000FFF7FBFBFFF7ADFB05E0AE48007840F0D7
:104CD0002000AC490870AB48007810F0210F05D1D6
:104CE0008948006840F0020087490860A6480078BB
:104CF00000286FD0A0480078002838D0834800688A
:104D00009E49096B884225D27F48007810F0400FF9
:104D100009D09EA17E48FEF7F2FE7B48006820F095
:104D20002000794908604FF480719B4800F0CFFE65
:104D30007648006801024FF480729748FDF763FFE0
:104D400095497348FEF7DBFE70480068401C6F49C8
:104D5000086009E06D48006818B190A16C48FEF742
:104D6000CEFE0020844908700020674908608D4805
:104D70000078002824D06448007810F0080F05D18E
:104D8000624800687D49C96A88427BD15F48007AE1
:104D9000002820DD5D4800687849096B884210D200
:104DA0005A48006801024FF480727B48FDF72BFFE0
:104DB00001207D49087055480068401C534908602F
:104DC00060E06E48C06A514908600846007A401E9B
:104DD000087257E012E075A14D48FEF790FE0020E2
:104DE000704908707348007800284BD072A1484879
:104DF000FEF785FE00206F49087043E070480068A8
:104E0000002800DA10BD4148007A00282ADD3E481B
:104E1000007810F0080F05D13C4800685749C96A6E
:104E200088422FD1394800685449096B884210D212
:104E30003648006801024FF480725748FDF7E3FEE0
:104E400001205949087031480068401C2F4908600A
:104E500018E04A48C06A2D4908600846007A401E9A
:104E600008720FE029494968564A505CFFF7F8FA82
:104E700053480068401E5249086024484068401C5E
:104E80002249486000BFBDE770B54F480078002850
:104E900030DD4D480078401E4B49087008460078C8
:104EA000052802DA01204949087049480078401C69
:104EB0004749087047480078401C46490870084632
:104EC0000078072801D100200870414800780728A1
:104ED00002D100203E4908703E48007800EBC00037
:104EE0003D4931F81000142190FBF1F03B49088056
:104EF0000124F3E0FBE000000048004039010020FD
:104F00003A0100206C0100203C0100206C140020BC
:104F10000038014023256450554C4B0D0A00000019
:104F2000A9130020232564504D4F4425640D0A0029
:104F300023323535504D4F4425642B304B2E2E2EC9
:104F40000D0A00000814002023464D51454E4142F1
:104F50004C452B4F4B2E2E2E0D0A000023464D5153
:104F600044495341424C452B4F4B2E2E2E0D0A00E7
:104F700037010020320100203501002038140020C4
:104F80006001002058010020280100202353746193
:104F900072740D0A000000001012002023456E6498
:104FA0000D0A0000380100204C0000203434340D7C
:104FB0000A00000036010020234147460D0A000088
:104FC0005C01002011130020240100202B0100208F
:104FD0002501002026010020680000202E0100206D
:104FE000FB48007800EBC000FA4901EB400030F8C4
:104FF0001400F949097801EBC101F64A02EB4101BD
:1050000031F81410884224DDF149097801EBC1011F
:1050100002EB410131F81410EF4A127802EBC202A0
:10502000EC4B03EB420232F81420881A01F07BF9B2
:10503000EA4A03C2EA48008801F08CF905462A468C
:105040000B46E64903C900F0B9FFE64A02EBC40289
:1050500003C2DF48007800EBC000DE4901EB4000EE
:1050600030F81400DC49097801EBC101D94A02EBA0
:10507000410131F8141088422EDCD749097801EB40
:10508000C10102EB410131F81410D14A127802EB50
:10509000C202D04B03EB420232F81420881A01F00E
:1050A00042F9CE4A03C2CE48008801F053F90546C2
:1050B0002A460B46C94903C900F080FFC94A02EBE2
:1050C000C40203C2C74800EBC40103C981F0004118
:1050D000C44A02EBC40203C2601CC4B2092CFFF62E
:1050E0007FAF0020C0490880C049087002E000205E
:1050F000BF49087070BD2DE9FF5F4FF0000AD3462D
:10510000BA480078012806D1B9480078012801D1B1
:10511000FFF7BAFE81E0B4480088401CB24908801D
:1051200008460088AE490988884208D10120B14963
:105130000870B148006840F00800AF4908604FF0BF
:10514000010A4FE0A249097801EBC101A14A02EB33
:10515000410131F81A10A94A32F81A20501A01D424
:10516000014600E04142052910DA0BF1010000F090
:10517000FF0B9748007800EBC000964901EB400018
:1051800030F81A009D4921F81A0027E09648008857
:1051900001F0E0F80446934800EBCA00D0E9006350
:1051A0003246204601F0EAF8804689468A49097865
:1051B00001EBC101874A02EB410131F81A0001F00D
:1051C000C9F842464B46CDE9000100F04FFECDE95B
:1051D000020101F07BF8894921F81A000AF1010067
:1051E00000F0FF0ABAF1090FACDBBBF1080F02D1E6
:1051F0000120834908704FF0000B7E480078012899
:105200000BD17F480078012807D100207949087028
:105210007B490870012075490870BDE8FF9F10B5F3
:10522000FFF7BCF8FFF7FDF8764800210160416008
:105230008160C16010BDFEF783FAFDF791F801208F
:10524000FEF7A9FB0220FEF7A6FB0320FEF7A3FB57
:10525000FDF75DFAFDF765FAFDF776FBFEF7E2F97B
:10526000FDF77AFA4FF4E1316748FEF7ABFB4FF4F4
:1052700016516648FEF7A6FB4FF4E130FEF7C1FB7E
:10528000FDF761FC03E062A15F48FEF738FCFDF723
:1052900039FCA0F56F411639F5D1FDF76EFBFEF72D
:1052A000DAF9FFF7BCFF19E05E480078012804D165
:1052B000FFF721FF00205B4908705B480078012858
:1052C00004D1FEF726FD002057490870FFF7C6FC01
:1052D000FFF724F9FEF753FDFEF732FDE4E72DE971
:1052E000FF5F52480078012857D100204F490870CD
:1052F0000420FEF709FA019001F02CF880464FF0E7
:1053000066324B4B01F03AF806460022494B01F059
:1053100035F80022484BCDE9020101F02FF8044690
:105320000022464B00F04AFE824600F09FFF4449AF
:10533000086044480068401C4249086042480068D0
:105340003F4909680844404908603E4800686428AD
:1053500023D100203B4908603B480068642190FB52
:10536000F1F03A4908600020374908603748006882
:10537000B0F5FA7F0CDB35480068B0F5167F07DC26
:10538000334800686FEA00003249C1F8B40104E014
:105390004FF400513048FBF7DCFABDE8FF9F03E013
:1053A0001BA11948FEF7ABFBFDF7ACFBA0F56F4165
:1053B0001639F5D129A11448FEF7A1FB2B48006846
:1053C000A0F164010F222A48FDF7B7FC52E000006B
:1053D000260100206800002025010020880100200F
:1053E0002E010020C81100203001002029010020DA
:1053F0002C010020710100203C010020E60000206B
:10540000700100206C14002000380140004400406E
:105410004E6F7420466F756E6420573235513634A6
:105420000D0A00002A0100204C000020430100204A
:1054300066660A4000002640000059400000B04067
:105440004C010020540100205001002048010020A0
:10545000B481214200802142000C014020466F753A
:105460006E64205732355136340D0A007401002025
:105470004C6700080AA11048FEF741FB0F4800687E
:10548000A0F164010F220E48FDF7BDFB0C490A484C
:10549000FEF735FB0BA10848FEF731FB00BFFEE726
:1054A000466C617368205772697465205375636335
:1054B0006573730D0A00000000380140740100207C
:1054C000DB1300200D0A20466C6173682052656171
:1054D0006420537563636573730D0A00704700BFE2
:1054E000FEE700BFFEE700BFFEE700BFFEE7704734
:1054F0007047704710B5FEF78BF910BD10B501214C
:105500008807FCF714FD48B101218807FCF720FD4E
:10551000FDF70BF801218807FCF706FD10BD10B55B
:1055200001213448FCF703FD38B101213148FCF773
:105530000FFD01218807FCF7F7FC10BD10B5012114
:105540002D48FCF7F4FC002843D001212A48FCF741
:10555000FFFC2A480078401C28490870084600785B
:105560000A280BD1012026490870264908702649CF
:1055700008702649087000202049087024480078E7
:10558000012811D123480078401C224908700846A0
:105590000078142808D1002008701F4800686FEABE
:1055A00000001E49C1F8B8011948007888B91C48A4
:1055B0000078401C1A49087008460078642808D111
:1055C00000200870144800686FEA00001349C1F811
:1055D000B80110BD10B501211248FCF7A8FC38B184
:1055E00001211048FCF7B4FC01218807FCF79CFC62
:1055F00010BD0000000400400008004090010020A1
:105600002A01002042010020430100204401002023
:105610006A01002092010020B881214200802142CD
:1056200091010020000C004000210020674A126810
:1056300042F48032654B1A6000BF644A126802F47B
:105640000030491C10B9B1F5A06FF6D15F4A12685D
:1056500012F4003F01D0012000E00020012842D1D7
:105660005B4A126842F01002594B1A601A461268DF
:1056700022F003021A601A46126842F002021A600F
:10568000524A5268514B5A601A4652685A601A463A
:10569000526842F480625A601A46526822F47C12C0
:1056A0005A601A46526842F4E8125A601A46126862
:1056B00042F080721A6000BF444A126812F0007F04
:1056C000FAD0424A526822F00302404B5A601A460E
:1056D000526842F002025A6000BF3C4A526802F02F
:1056E0000C02082AF9D1704710B5FFF79DFF10BDD5
:1056F00010B53648006840F001003449086008469B
:1057000040683449084031494860084600683249D9
:1057100008402E4908600846006820F48020086090
:105720000846406820F4FE0048604FF41F0088607F
:10573000FFF7DAFF4FF000602849086010BD10B590
:10574000002100200022214B5B6803F00C0121B1F5
:10575000042906D0082928D107E0214B214C2360D9
:1057600027E01F4B1F4C236023E0184B5B6803F4BA
:105770007010164B5B6803F48032022303EB9040F9
:1057800022B9194B4343174C23600DE00F4B5B6864
:1057900013F4003F04D0144B4343124C236003E046
:1057A0000F4B43430F4C236003E00D4B0D4C236024
:1057B00000BF00BF054B5B68C3F303130B4CE15CF8
:1057C000084B1B68CB40074C236010BD0010024003
:1057D000002002400000FFF8FFFFF6FE08ED00E0A9
:1057E00000127A009401002000093D009801002079
:1057F000704700000FB41CB5074B06AA7B446946EE
:105800000090059800F0F3F90020694600F002FAD4
:105810001CBC5DF814FB0000150400002DE9F041EC
:1058200004460E46002020622046E168884738B3CF
:10583000252806D0D4E901219047206A401C206227
:10584000F2E7E168204600278847050018D0A5F157
:105850004100192802D820354FF400673246294606
:1058600020462760FAF79CFC40B1012804D0F61DC1
:1058700026F007060836D7E7361DD5E72846D9E7CC
:10588000206ABDE8F08100002DE9F04106460024C1
:1058900010687529314616A511D0AFF30080002895
:1058A00003DAC0F1000013A507E031688A0701D5CB
:1058B00011A502E0490704D510A5012401E0AFF3CA
:1058C000008000210A2306F1240707E0B0FBF3F271
:1058D00003FB1200303078541046491C0028F5D1E3
:1058E00023462A463046BDE8F04100F01FB90000CB
:1058F000000000002D0000002B0000002000000030
:1059000070B5064600F00EF90468054630460A22D6
:10591000002100F084F92C6070BD401ECAB210F85E
:10592000011F8A4202D00029F9D10020704730B50A
:1059300005460B462A4613F8014B12F8010B08B135
:10594000A042F8D01CB1002802D06D1CF1E7284617
:1059500030BD10B5431C02E010F8011B71B1810786
:10596000FAD14FF0013202C88C1A8C4314EAC211EA
:10597000F9D0C01A0A0603D0C01E10BDC01A10BD4F
:105980000A0401D0801E10BD0902FCD0401E10BDCB
:1059900040EA010370B59B072ED14FF00136042A6F
:1059A0002AD308C810C9121F9D1B9D4315EAC615AE
:1059B00017D0D8B2E1B2401A50EA056110D198B2BE
:1059C000A1B2401A50EA05410AD123F07F4024F0E9
:1059D0007F41401A50EA052102D1180EA0EB146055
:1059E00070BDA342DBD018BA21BA884201D9012088
:1059F00070BD4FF0FF3070BD0AB9002070BD10F8C7
:105A0000013B11F8014B63B1A3420AD1521E08D0E9
:105A100010F8013B11F8014B1BB1A34201D1521EFA
:105A2000EDD1181B70BD10B5203AC0F00B80B1E865
:105A30001850203AA0E81850B1E81850A0E81850C3
:105A4000BFF4F5AF5FEA027C24BFB1E81850A0E8CC
:105A5000185044BF18C918C0BDE810405FEA827CE6
:105A600024BF51F8043B40F8043B08BF7047D207FD
:105A700028BF31F8023B48BF11F8012B28BF20F89E
:105A8000023B48BF00F8012B70474FF00002042989
:105A9000C0F0128010F0030C00F01B80CCF1040C5D
:105AA000BCF1020F18BF00F8012BA8BF20F8022B91
:105AB000A1EB0C0100F00DB85FEAC17C24BF00F837
:105AC000012B00F8012B48BF00F8012B70474FF065
:105AD000000200B5134694469646203922BFA0E83E
